{
  "_format": "hh-sol-artifact-1",
  "contractName": "Banking",
  "sourceName": "contracts/Banking.sol",
  "abi": [
    {
      "inputs": [
        {
          "internalType": "string",
          "name": "name",
          "type": "string"
        },
        {
          "internalType": "uint256",
          "name": "interest",
          "type": "uint256"
        },
        {
          "internalType": "uint256",
          "name": "loan_amount",
          "type": "uint256"
        },
        {
          "internalType": "uint256",
          "name": "amount",
          "type": "uint256"
        },
        {
          "internalType": "address",
          "name": "account",
          "type": "address"
        }
      ],
      "name": "addApplyLoan",
      "outputs": [],
      "stateMutability": "nonpayable",
      "type": "function"
    },
    {
      "inputs": [
        {
          "internalType": "string",
          "name": "name",
          "type": "string"
        },
        {
          "internalType": "uint256",
          "name": "interest",
          "type": "uint256"
        },
        {
          "internalType": "uint256",
          "name": "loan_amount",
          "type": "uint256"
        },
        {
          "internalType": "uint256",
          "name": "amount",
          "type": "uint256"
        },
        {
          "internalType": "address",
          "name": "account",
          "type": "address"
        }
      ],
      "name": "addApproveLoan",
      "outputs": [],
      "stateMutability": "nonpayable",
      "type": "function"
    },
    {
      "inputs": [
        {
          "internalType": "string",
          "name": "name",
          "type": "string"
        },
        {
          "internalType": "uint256",
          "name": "interest",
          "type": "uint256"
        },
        {
          "internalType": "uint256",
          "name": "amount",
          "type": "uint256"
        }
      ],
      "name": "addLoan",
      "outputs": [],
      "stateMutability": "nonpayable",
      "type": "function"
    },
    {
      "inputs": [
        {
          "internalType": "address",
          "name": "pubkey",
          "type": "address"
        },
        {
          "internalType": "string",
          "name": "name",
          "type": "string"
        },
        {
          "internalType": "string",
          "name": "username",
          "type": "string"
        },
        {
          "internalType": "string",
          "name": "email",
          "type": "string"
        },
        {
          "internalType": "string",
          "name": "password",
          "type": "string"
        },
        {
          "internalType": "string",
          "name": "contact",
          "type": "string"
        },
        {
          "internalType": "string",
          "name": "city",
          "type": "string"
        }
      ],
      "name": "addUser",
      "outputs": [],
      "stateMutability": "nonpayable",
      "type": "function"
    },
    {
      "inputs": [
        {
          "internalType": "address",
          "name": "pubkey",
          "type": "address"
        }
      ],
      "name": "checkUerExists",
      "outputs": [
        {
          "internalType": "bool",
          "name": "",
          "type": "bool"
        }
      ],
      "stateMutability": "view",
      "type": "function"
    },
    {
      "inputs": [
        {
          "internalType": "uint256",
          "name": "amount",
          "type": "uint256"
        }
      ],
      "name": "depositMoney",
      "outputs": [],
      "stateMutability": "payable",
      "type": "function"
    },
    {
      "inputs": [
        {
          "internalType": "address",
          "name": "account",
          "type": "address"
        },
        {
          "internalType": "uint256",
          "name": "amount",
          "type": "uint256"
        }
      ],
      "name": "depositTo",
      "outputs": [],
      "stateMutability": "payable",
      "type": "function"
    },
    {
      "inputs": [],
      "name": "getAcctBalance",
      "outputs": [
        {
          "internalType": "uint256",
          "name": "",
          "type": "uint256"
        }
      ],
      "stateMutability": "view",
      "type": "function"
    },
    {
      "inputs": [],
      "name": "getAllLoan",
      "outputs": [
        {
          "components": [
            {
              "internalType": "string",
              "name": "name",
              "type": "string"
            },
            {
              "internalType": "uint256",
              "name": "interest",
              "type": "uint256"
            },
            {
              "internalType": "uint256",
              "name": "amount",
              "type": "uint256"
            },
            {
              "internalType": "uint256",
              "name": "timestamp",
              "type": "uint256"
            }
          ],
          "internalType": "struct Banking.Loan[]",
          "name": "",
          "type": "tuple[]"
        }
      ],
      "stateMutability": "view",
      "type": "function"
    },
    {
      "inputs": [],
      "name": "getApplyLoan",
      "outputs": [
        {
          "components": [
            {
              "internalType": "string",
              "name": "name",
              "type": "string"
            },
            {
              "internalType": "uint256",
              "name": "interest",
              "type": "uint256"
            },
            {
              "internalType": "uint256",
              "name": "loan_amount",
              "type": "uint256"
            },
            {
              "internalType": "uint256",
              "name": "amount",
              "type": "uint256"
            },
            {
              "internalType": "address",
              "name": "account",
              "type": "address"
            },
            {
              "internalType": "uint256",
              "name": "timestamp",
              "type": "uint256"
            }
          ],
          "internalType": "struct Banking.ApplyLoan[]",
          "name": "",
          "type": "tuple[]"
        }
      ],
      "stateMutability": "view",
      "type": "function"
    },
    {
      "inputs": [
        {
          "internalType": "address",
          "name": "account",
          "type": "address"
        }
      ],
      "name": "getTransaction",
      "outputs": [
        {
          "components": [
            {
              "internalType": "string",
              "name": "title",
              "type": "string"
            },
            {
              "internalType": "uint256",
              "name": "amount",
              "type": "uint256"
            },
            {
              "internalType": "address",
              "name": "account",
              "type": "address"
            },
            {
              "internalType": "string",
              "name": "description",
              "type": "string"
            },
            {
              "internalType": "uint256",
              "name": "balance",
              "type": "uint256"
            },
            {
              "internalType": "uint256",
              "name": "timestamp",
              "type": "uint256"
            }
          ],
          "internalType": "struct Banking.transaction[]",
          "name": "",
          "type": "tuple[]"
        }
      ],
      "stateMutability": "view",
      "type": "function"
    },
    {
      "inputs": [],
      "name": "getUsers",
      "outputs": [
        {
          "components": [
            {
              "internalType": "address",
              "name": "accountAddress",
              "type": "address"
            },
            {
              "internalType": "string",
              "name": "name",
              "type": "string"
            },
            {
              "internalType": "string",
              "name": "username",
              "type": "string"
            },
            {
              "internalType": "string",
              "name": "password",
              "type": "string"
            },
            {
              "internalType": "string",
              "name": "email",
              "type": "string"
            },
            {
              "internalType": "string",
              "name": "contact",
              "type": "string"
            },
            {
              "internalType": "string",
              "name": "city",
              "type": "string"
            },
            {
              "internalType": "uint256",
              "name": "timestamp",
              "type": "uint256"
            }
          ],
          "internalType": "struct Banking.User[]",
          "name": "",
          "type": "tuple[]"
        }
      ],
      "stateMutability": "view",
      "type": "function"
    },
    {
      "inputs": [
        {
          "internalType": "string",
          "name": "name",
          "type": "string"
        },
        {
          "internalType": "string",
          "name": "password",
          "type": "string"
        }
      ],
      "name": "loginAcct",
      "outputs": [
        {
          "internalType": "bool",
          "name": "",
          "type": "bool"
        }
      ],
      "stateMutability": "view",
      "type": "function"
    },
    {
      "inputs": [
        {
          "internalType": "address",
          "name": "account",
          "type": "address"
        },
        {
          "internalType": "uint256",
          "name": "amount",
          "type": "uint256"
        }
      ],
      "name": "transferMoney",
      "outputs": [],
      "stateMutability": "payable",
      "type": "function"
    },
    {
      "inputs": [
        {
          "internalType": "address",
          "name": "account",
          "type": "address"
        },
        {
          "internalType": "address",
          "name": "accountTo",
          "type": "address"
        },
        {
          "internalType": "uint256",
          "name": "amount",
          "type": "uint256"
        }
      ],
      "name": "transferTo",
      "outputs": [],
      "stateMutability": "payable",
      "type": "function"
    },
    {
      "inputs": [
        {
          "internalType": "uint256",
          "name": "amount",
          "type": "uint256"
        }
      ],
      "name": "withdrawMoney",
      "outputs": [],
      "stateMutability": "payable",
      "type": "function"
    },
    {
      "inputs": [
        {
          "internalType": "address",
          "name": "account",
          "type": "address"
        },
        {
          "internalType": "uint256",
          "name": "amount",
          "type": "uint256"
        }
      ],
      "name": "withdrawTo",
      "outputs": [],
      "stateMutability": "payable",
      "type": "function"
    }
  ],
  "bytecode": "0x608060405234801561001057600080fd5b50612ffd806100206000396000f3fe6080604052600436106100fd5760003560e01c80637bb8637911610095578063a5f2a15211610064578063a5f2a15214610318578063ae18c52b14610334578063cff0155f14610350578063fee666ad14610379578063ffaad6a514610395576100fd565b80637bb863791461024a5780639227c28c1461028757806399fa9379146102b2578063a2eb283d146102ef576100fd565b806345abcb22116100d157806345abcb221461019d57806354876921146101da578063548a8c7d146101f657806355b639a71461021f576100fd565b8062ce8e3e1461010257806308334a261461012d578063205c2878146101585780633465e91a14610174575b600080fd5b34801561010e57600080fd5b506101176103b1565b60405161012491906121ff565b60405180910390f35b34801561013957600080fd5b506101426107dd565b60405161014f9190612230565b60405180910390f35b610172600480360381019061016d91906122b7565b610824565b005b34801561018057600080fd5b5061019b6004803603810190610196919061242c565b610987565b005b3480156101a957600080fd5b506101c460048036038101906101bf9190612576565b610ca6565b6040516101d19190612609565b60405180910390f35b6101f460048036038101906101ef9190612624565b610d2a565b005b34801561020257600080fd5b5061021d60048036038101906102189190612651565b610e8c565b005b34801561022b57600080fd5b50610234610f19565b604051610241919061280b565b60405180910390f35b34801561025657600080fd5b50610271600480360381019061026c919061282d565b611088565b60405161027e91906129ac565b60405180910390f35b34801561029357600080fd5b5061029c6112c1565b6040516102a99190612af3565b60405180910390f35b3480156102be57600080fd5b506102d960048036038101906102d4919061282d565b6113d0565b6040516102e69190612609565b60405180910390f35b3480156102fb57600080fd5b5061031660048036038101906103119190612b15565b611429565b005b610332600480360381019061032d9190612bac565b61152b565b005b61034e60048036038101906103499190612624565b6117a7565b005b34801561035c57600080fd5b5061037760048036038101906103729190612b15565b6118c2565b005b610393600480360381019061038e91906122b7565b611adc565b005b6103af60048036038101906103aa91906122b7565b611c95565b005b60606004805480602002602001604051908101604052809291908181526020016000905b828210156107d45783829060005260206000209060080201604051806101000160405290816000820160009054906101000a900473ffffffffffffffffffffffffffffffffffffffff1673ffffffffffffffffffffffffffffffffffffffff1673ffffffffffffffffffffffffffffffffffffffff16815260200160018201805461045f90612c2e565b80601f016020809104026020016040519081016040528092919081815260200182805461048b90612c2e565b80156104d85780601f106104ad576101008083540402835291602001916104d8565b820191906000526020600020905b8154815290600101906020018083116104bb57829003601f168201915b505050505081526020016002820180546104f190612c2e565b80601f016020809104026020016040519081016040528092919081815260200182805461051d90612c2e565b801561056a5780601f1061053f5761010080835404028352916020019161056a565b820191906000526020600020905b81548152906001019060200180831161054d57829003601f168201915b5050505050815260200160038201805461058390612c2e565b80601f01602080910402602001604051908101604052809291908181526020018280546105af90612c2e565b80156105fc5780601f106105d1576101008083540402835291602001916105fc565b820191906000526020600020905b8154815290600101906020018083116105df57829003601f168201915b5050505050815260200160048201805461061590612c2e565b80601f016020809104026020016040519081016040528092919081815260200182805461064190612c2e565b801561068e5780601f106106635761010080835404028352916020019161068e565b820191906000526020600020905b81548152906001019060200180831161067157829003601f168201915b505050505081526020016005820180546106a790612c2e565b80601f01602080910402602001604051908101604052809291908181526020018280546106d390612c2e565b80156107205780601f106106f557610100808354040283529160200191610720565b820191906000526020600020905b81548152906001019060200180831161070357829003601f168201915b5050505050815260200160068201805461073990612c2e565b80601f016020809104026020016040519081016040528092919081815260200182805461076590612c2e565b80156107b25780601f10610787576101008083540402835291602001916107b2565b820191906000526020600020905b81548152906001019060200180831161079557829003601f168201915b50505050508152602001600782015481525050815260200190600101906103d5565b50505050905090565b6000600260003373ffffffffffffffffffffffffffffffffffffffff1673ffffffffffffffffffffffffffffffffffffffff16815260200190815260200160002054905090565b80600260008473ffffffffffffffffffffffffffffffffffffffff1673ffffffffffffffffffffffffffffffffffffffff16815260200190815260200160002054106109835780600260008473ffffffffffffffffffffffffffffffffffffffff1673ffffffffffffffffffffffffffffffffffffffff16815260200190815260200160002060008282546108b99190612c8e565b9250508190555060006040518060400160405280600b81526020017f446562697420416c657274000000000000000000000000000000000000000000815250905060006040518060400160405280601c81526020017f4163636f756e742064656269746564207375636365737366756c6c7900000000815250905061098082848684600260008a73ffffffffffffffffffffffffffffffffffffffff1673ffffffffffffffffffffffffffffffffffffffff16815260200190815260200160002054611db1565b50505b5050565b846001866040516109989190612cfe565b908152602001604051809103902060020190816109b59190612ec1565b50826001846040516109c79190612cfe565b908152602001604051809103902060030190816109e49190612ec1565b506040518061010001604052808873ffffffffffffffffffffffffffffffffffffffff168152602001878152602001868152602001848152602001858152602001838152602001828152602001428152506000808973ffffffffffffffffffffffffffffffffffffffff1673ffffffffffffffffffffffffffffffffffffffff16815260200190815260200160002060008201518160000160006101000a81548173ffffffffffffffffffffffffffffffffffffffff021916908373ffffffffffffffffffffffffffffffffffffffff1602179055506020820151816001019081610acf9190612ec1565b506040820151816002019081610ae59190612ec1565b506060820151816003019081610afb9190612ec1565b506080820151816004019081610b119190612ec1565b5060a0820151816005019081610b279190612ec1565b5060c0820151816006019081610b3d9190612ec1565b5060e0820151816007015590505060046040518061010001604052808973ffffffffffffffffffffffffffffffffffffffff16815260200188815260200187815260200185815260200186815260200184815260200183815260200142815250908060018154018082558091505060019003906000526020600020906008020160009091909190915060008201518160000160006101000a81548173ffffffffffffffffffffffffffffffffffffffff021916908373ffffffffffffffffffffffffffffffffffffffff1602179055506020820151816001019081610c229190612ec1565b506040820151816002019081610c389190612ec1565b506060820151816003019081610c4e9190612ec1565b506080820151816004019081610c649190612ec1565b5060a0820151816005019081610c7a9190612ec1565b5060c0820151816006019081610c909190612ec1565b5060e08201518160070155505050505050505050565b600080600184604051610cb99190612cfe565b90815260200160405180910390206002018054610cd590612c2e565b9050118015610d1157506000600183604051610cf19190612cfe565b90815260200160405180910390206003018054610d0d90612c2e565b9050115b15610d1f5760019050610d24565b600090505b92915050565b80600260003373ffffffffffffffffffffffffffffffffffffffff1673ffffffffffffffffffffffffffffffffffffffff1681526020019081526020016000205410610e895780600260003373ffffffffffffffffffffffffffffffffffffffff1673ffffffffffffffffffffffffffffffffffffffff1681526020019081526020016000206000828254610dbf9190612c8e565b9250508190555060006040518060400160405280600b81526020017f446562697420416c657274000000000000000000000000000000000000000000815250905060006040518060400160405280601c81526020017f4163636f756e742064656269746564207375636365737366756c6c79000000008152509050610e8682843384600260003373ffffffffffffffffffffffffffffffffffffffff1673ffffffffffffffffffffffffffffffffffffffff16815260200190815260200160002054611db1565b50505b50565b6000604051806080016040528085815260200184815260200183815260200142815250905060058190806001815401808255809150506001900390600052602060002090600402016000909190919091506000820151816000019081610ef29190612ec1565b50602082015181600101556040820151816002015560608201518160030155505050505050565b60606006805480602002602001604051908101604052809291908181526020016000905b8282101561107f57838290600052602060002090600602016040518060c0016040529081600082018054610f7090612c2e565b80601f0160208091040260200160405190810160405280929190818152602001828054610f9c90612c2e565b8015610fe95780601f10610fbe57610100808354040283529160200191610fe9565b820191906000526020600020905b815481529060010190602001808311610fcc57829003601f168201915b505050505081526020016001820154815260200160028201548152602001600382015481526020016004820160009054906101000a900473ffffffffffffffffffffffffffffffffffffffff1673ffffffffffffffffffffffffffffffffffffffff1673ffffffffffffffffffffffffffffffffffffffff16815260200160058201548152505081526020019060010190610f3d565b50505050905090565b6060600360008373ffffffffffffffffffffffffffffffffffffffff1673ffffffffffffffffffffffffffffffffffffffff168152602001908152602001600020600101805480602002602001604051908101604052809291908181526020016000905b828210156112b657838290600052602060002090600602016040518060c001604052908160008201805461111f90612c2e565b80601f016020809104026020016040519081016040528092919081815260200182805461114b90612c2e565b80156111985780601f1061116d57610100808354040283529160200191611198565b820191906000526020600020905b81548152906001019060200180831161117b57829003601f168201915b50505050508152602001600182015481526020016002820160009054906101000a900473ffffffffffffffffffffffffffffffffffffffff1673ffffffffffffffffffffffffffffffffffffffff1673ffffffffffffffffffffffffffffffffffffffff16815260200160038201805461121190612c2e565b80601f016020809104026020016040519081016040528092919081815260200182805461123d90612c2e565b801561128a5780601f1061125f5761010080835404028352916020019161128a565b820191906000526020600020905b81548152906001019060200180831161126d57829003601f168201915b5050505050815260200160048201548152602001600582015481525050815260200190600101906110ec565b505050509050919050565b60606005805480602002602001604051908101604052809291908181526020016000905b828210156113c7578382906000526020600020906004020160405180608001604052908160008201805461131890612c2e565b80601f016020809104026020016040519081016040528092919081815260200182805461134490612c2e565b80156113915780601f1061136657610100808354040283529160200191611391565b820191906000526020600020905b81548152906001019060200180831161137457829003601f168201915b505050505081526020016001820154815260200160028201548152602001600382015481525050815260200190600101906112e5565b50505050905090565b6000806000808473ffffffffffffffffffffffffffffffffffffffff1673ffffffffffffffffffffffffffffffffffffffff168152602001908152602001600020600201805461141f90612c2e565b9050119050919050565b60006040518060c001604052808781526020018681526020018581526020018481526020018373ffffffffffffffffffffffffffffffffffffffff168152602001428152509050600681908060018154018082558091505060019003906000526020600020906006020160009091909190915060008201518160000190816114b19190612ec1565b5060208201518160010155604082015181600201556060820151816003015560808201518160040160006101000a81548173ffffffffffffffffffffffffffffffffffffffff021916908373ffffffffffffffffffffffffffffffffffffffff16021790555060a082015181600501555050505050505050565b80600260008573ffffffffffffffffffffffffffffffffffffffff1673ffffffffffffffffffffffffffffffffffffffff16815260200190815260200160002054106117a25780600260008573ffffffffffffffffffffffffffffffffffffffff1673ffffffffffffffffffffffffffffffffffffffff16815260200190815260200160002060008282546115c09190612c8e565b9250508190555080600260008473ffffffffffffffffffffffffffffffffffffffff1673ffffffffffffffffffffffffffffffffffffffff16815260200190815260200160002060008282546116169190612f93565b9250508190555060006040518060400160405280600b81526020017f446562697420416c657274000000000000000000000000000000000000000000815250905060006040518060400160405280600c81526020017f43726564697420416c6572740000000000000000000000000000000000000000815250905060006040518060400160405280601f81526020017f4163636f756e74205472616e736665726564207375636365737366756c6c7900815250905060006040518060400160405280600881526020017f5472616e73666572000000000000000000000000000000000000000000000000815250905061175184868985600260008d73ffffffffffffffffffffffffffffffffffffffff1673ffffffffffffffffffffffffffffffffffffffff16815260200190815260200160002054611db1565b61179d83868884600260008c73ffffffffffffffffffffffffffffffffffffffff1673ffffffffffffffffffffffffffffffffffffffff16815260200190815260200160002054611db1565b505050505b505050565b80600260003373ffffffffffffffffffffffffffffffffffffffff1673ffffffffffffffffffffffffffffffffffffffff16815260200190815260200160002060008282546117f69190612f93565b9250508190555060006040518060400160405280600c81526020017f43726564697420416c6572740000000000000000000000000000000000000000815250905060006040518060400160405280601e81526020017f4163636f756e74206465706f7369746564207375636365737366756c6c79000081525090506118bd82843384600260003373ffffffffffffffffffffffffffffffffffffffff1673ffffffffffffffffffffffffffffffffffffffff16815260200190815260200160002054611db1565b505050565b60006040518060c001604052808781526020018681526020018581526020018481526020018373ffffffffffffffffffffffffffffffffffffffff1681526020014281525090506007819080600181540180825580915050600190039060005260206000209060060201600090919091909150600082015181600001908161194a9190612ec1565b5060208201518160010155604082015181600201556060820151816003015560808201518160040160006101000a81548173ffffffffffffffffffffffffffffffffffffffff021916908373ffffffffffffffffffffffffffffffffffffffff16021790555060a08201518160050155505082600260008473ffffffffffffffffffffffffffffffffffffffff1673ffffffffffffffffffffffffffffffffffffffff1681526020019081526020016000206000828254611a0b9190612f93565b9250508190555060006040518060400160405280600481526020017f4c6f616e00000000000000000000000000000000000000000000000000000000815250905060006040518060400160405280601c81526020017f596f7572206c6f616e2068617665206265656e20617070726f766564000000008152509050611ad282868684600260008a73ffffffffffffffffffffffffffffffffffffffff1673ffffffffffffffffffffffffffffffffffffffff16815260200190815260200160002054611db1565b5050505050505050565b80600260003373ffffffffffffffffffffffffffffffffffffffff1673ffffffffffffffffffffffffffffffffffffffff1681526020019081526020016000205410611c915780600260003373ffffffffffffffffffffffffffffffffffffffff1673ffffffffffffffffffffffffffffffffffffffff1681526020019081526020016000206000828254611b719190612c8e565b9250508190555080600260008473ffffffffffffffffffffffffffffffffffffffff1673ffffffffffffffffffffffffffffffffffffffff1681526020019081526020016000206000828254611bc79190612c8e565b9250508190555060006040518060400160405280600b81526020017f446562697420416c657274000000000000000000000000000000000000000000815250905060006040518060400160405280601f81526020017f4163636f756e74205472616e736665726564207375636365737366756c6c79008152509050611c8e82848684600260008a73ffffffffffffffffffffffffffffffffffffffff1673ffffffffffffffffffffffffffffffffffffffff16815260200190815260200160002054611db1565b50505b5050565b80600260008473ffffffffffffffffffffffffffffffffffffffff1673ffffffffffffffffffffffffffffffffffffffff1681526020019081526020016000206000828254611ce49190612f93565b9250508190555060006040518060400160405280600c81526020017f43726564697420416c6572740000000000000000000000000000000000000000815250905060006040518060400160405280601e81526020017f4163636f756e74206465706f7369746564207375636365737366756c6c7900008152509050611dab82848684600260008a73ffffffffffffffffffffffffffffffffffffffff1673ffffffffffffffffffffffffffffffffffffffff16815260200190815260200160002054611db1565b50505050565b60006040518060c001604052808781526020018681526020018573ffffffffffffffffffffffffffffffffffffffff16815260200184815260200183815260200142815250905083600360008673ffffffffffffffffffffffffffffffffffffffff1673ffffffffffffffffffffffffffffffffffffffff16815260200190815260200160002060000160006101000a81548173ffffffffffffffffffffffffffffffffffffffff021916908373ffffffffffffffffffffffffffffffffffffffff160217905550600360008573ffffffffffffffffffffffffffffffffffffffff1673ffffffffffffffffffffffffffffffffffffffff1681526020019081526020016000206001018190806001815401808255809150506001900390600052602060002090600602016000909190919091506000820151816000019081611efa9190612ec1565b506020820151816001015560408201518160020160006101000a81548173ffffffffffffffffffffffffffffffffffffffff021916908373ffffffffffffffffffffffffffffffffffffffff1602179055506060820151816003019081611f619190612ec1565b506080820151816004015560a082015181600501555050505050505050565b600081519050919050565b600082825260208201905092915050565b6000819050602082019050919050565b600073ffffffffffffffffffffffffffffffffffffffff82169050919050565b6000611fd782611fac565b9050919050565b611fe781611fcc565b82525050565b600081519050919050565b600082825260208201905092915050565b60005b8381101561202757808201518184015260208101905061200c565b60008484015250505050565b6000601f19601f8301169050919050565b600061204f82611fed565b6120598185611ff8565b9350612069818560208601612009565b61207281612033565b840191505092915050565b6000819050919050565b6120908161207d565b82525050565b6000610100830160008301516120af6000860182611fde565b50602083015184820360208601526120c78282612044565b915050604083015184820360408601526120e18282612044565b915050606083015184820360608601526120fb8282612044565b915050608083015184820360808601526121158282612044565b91505060a083015184820360a086015261212f8282612044565b91505060c083015184820360c08601526121498282612044565b91505060e083015161215e60e0860182612087565b508091505092915050565b60006121758383612096565b905092915050565b6000602082019050919050565b600061219582611f80565b61219f8185611f8b565b9350836020820285016121b185611f9c565b8060005b858110156121ed57848403895281516121ce8582612169565b94506121d98361217d565b925060208a019950506001810190506121b5565b50829750879550505050505092915050565b60006020820190508181036000830152612219818461218a565b905092915050565b61222a8161207d565b82525050565b60006020820190506122456000830184612221565b92915050565b6000604051905090565b600080fd5b600080fd5b61226881611fcc565b811461227357600080fd5b50565b6000813590506122858161225f565b92915050565b6122948161207d565b811461229f57600080fd5b50565b6000813590506122b18161228b565b92915050565b600080604083850312156122ce576122cd612255565b5b60006122dc85828601612276565b92505060206122ed858286016122a2565b9150509250929050565b600080fd5b600080fd5b7f4e487b7100000000000000000000000000000000000000000000000000000000600052604160045260246000fd5b61233982612033565b810181811067ffffffffffffffff8211171561235857612357612301565b5b80604052505050565b600061236b61224b565b90506123778282612330565b919050565b600067ffffffffffffffff82111561239757612396612301565b5b6123a082612033565b9050602081019050919050565b82818337600083830152505050565b60006123cf6123ca8461237c565b612361565b9050828152602081018484840111156123eb576123ea6122fc565b5b6123f68482856123ad565b509392505050565b600082601f830112612413576124126122f7565b5b81356124238482602086016123bc565b91505092915050565b600080600080600080600060e0888a03121561244b5761244a612255565b5b60006124598a828b01612276565b975050602088013567ffffffffffffffff81111561247a5761247961225a565b5b6124868a828b016123fe565b965050604088013567ffffffffffffffff8111156124a7576124a661225a565b5b6124b38a828b016123fe565b955050606088013567ffffffffffffffff8111156124d4576124d361225a565b5b6124e08a828b016123fe565b945050608088013567ffffffffffffffff8111156125015761250061225a565b5b61250d8a828b016123fe565b93505060a088013567ffffffffffffffff81111561252e5761252d61225a565b5b61253a8a828b016123fe565b92505060c088013567ffffffffffffffff81111561255b5761255a61225a565b5b6125678a828b016123fe565b91505092959891949750929550565b6000806040838503121561258d5761258c612255565b5b600083013567ffffffffffffffff8111156125ab576125aa61225a565b5b6125b7858286016123fe565b925050602083013567ffffffffffffffff8111156125d8576125d761225a565b5b6125e4858286016123fe565b9150509250929050565b60008115159050919050565b612603816125ee565b82525050565b600060208201905061261e60008301846125fa565b92915050565b60006020828403121561263a57612639612255565b5b6000612648848285016122a2565b91505092915050565b60008060006060848603121561266a57612669612255565b5b600084013567ffffffffffffffff8111156126885761268761225a565b5b612694868287016123fe565b93505060206126a5868287016122a2565b92505060406126b6868287016122a2565b9150509250925092565b600081519050919050565b600082825260208201905092915050565b6000819050602082019050919050565b600060c08301600083015184820360008601526127098282612044565b915050602083015161271e6020860182612087565b5060408301516127316040860182612087565b5060608301516127446060860182612087565b5060808301516127576080860182611fde565b5060a083015161276a60a0860182612087565b508091505092915050565b600061278183836126ec565b905092915050565b6000602082019050919050565b60006127a1826126c0565b6127ab81856126cb565b9350836020820285016127bd856126dc565b8060005b858110156127f957848403895281516127da8582612775565b94506127e583612789565b925060208a019950506001810190506127c1565b50829750879550505050505092915050565b600060208201905081810360008301526128258184612796565b905092915050565b60006020828403121561284357612842612255565b5b600061285184828501612276565b91505092915050565b600081519050919050565b600082825260208201905092915050565b6000819050602082019050919050565b600060c08301600083015184820360008601526128a38282612044565b91505060208301516128b86020860182612087565b5060408301516128cb6040860182611fde565b50606083015184820360608601526128e38282612044565b91505060808301516128f86080860182612087565b5060a083015161290b60a0860182612087565b508091505092915050565b60006129228383612886565b905092915050565b6000602082019050919050565b60006129428261285a565b61294c8185612865565b93508360208202850161295e85612876565b8060005b8581101561299a578484038952815161297b8582612916565b94506129868361292a565b925060208a01995050600181019050612962565b50829750879550505050505092915050565b600060208201905081810360008301526129c68184612937565b905092915050565b600081519050919050565b600082825260208201905092915050565b6000819050602082019050919050565b60006080830160008301518482036000860152612a178282612044565b9150506020830151612a2c6020860182612087565b506040830151612a3f6040860182612087565b506060830151612a526060860182612087565b508091505092915050565b6000612a6983836129fa565b905092915050565b6000602082019050919050565b6000612a89826129ce565b612a9381856129d9565b935083602082028501612aa5856129ea565b8060005b85811015612ae15784840389528151612ac28582612a5d565b9450612acd83612a71565b925060208a01995050600181019050612aa9565b50829750879550505050505092915050565b60006020820190508181036000830152612b0d8184612a7e565b905092915050565b600080600080600060a08688031215612b3157612b30612255565b5b600086013567ffffffffffffffff811115612b4f57612b4e61225a565b5b612b5b888289016123fe565b9550506020612b6c888289016122a2565b9450506040612b7d888289016122a2565b9350506060612b8e888289016122a2565b9250506080612b9f88828901612276565b9150509295509295909350565b600080600060608486031215612bc557612bc4612255565b5b6000612bd386828701612276565b9350506020612be486828701612276565b9250506040612bf5868287016122a2565b9150509250925092565b7f4e487b7100000000000000000000000000000000000000000000000000000000600052602260045260246000fd5b60006002820490506001821680612c4657607f821691505b602082108103612c5957612c58612bff565b5b50919050565b7f4e487b7100000000000000000000000000000000000000000000000000000000600052601160045260246000fd5b6000612c998261207d565b9150612ca48361207d565b9250828203905081811115612cbc57612cbb612c5f565b5b92915050565b600081905092915050565b6000612cd882611fed565b612ce28185612cc2565b9350612cf2818560208601612009565b80840191505092915050565b6000612d0a8284612ccd565b915081905092915050565b60008190508160005260206000209050919050565b60006020601f8301049050919050565b600082821b905092915050565b600060088302612d777fffffffffffffffffffffffffffffffffffffffffffffffffffffffffffffffff82612d3a565b612d818683612d3a565b95508019841693508086168417925050509392505050565b6000819050919050565b6000612dbe612db9612db48461207d565b612d99565b61207d565b9050919050565b6000819050919050565b612dd883612da3565b612dec612de482612dc5565b848454612d47565b825550505050565b600090565b612e01612df4565b612e0c818484612dcf565b505050565b5b81811015612e3057612e25600082612df9565b600181019050612e12565b5050565b601f821115612e7557612e4681612d15565b612e4f84612d2a565b81016020851015612e5e578190505b612e72612e6a85612d2a565b830182612e11565b50505b505050565b600082821c905092915050565b6000612e9860001984600802612e7a565b1980831691505092915050565b6000612eb18383612e87565b9150826002028217905092915050565b612eca82611fed565b67ffffffffffffffff811115612ee357612ee2612301565b5b612eed8254612c2e565b612ef8828285612e34565b600060209050601f831160018114612f2b5760008415612f19578287015190505b612f238582612ea5565b865550612f8b565b601f198416612f3986612d15565b60005b82811015612f6157848901518255600182019150602085019450602081019050612f3c565b86831015612f7e5784890151612f7a601f891682612e87565b8355505b6001600288020188555050505b505050505050565b6000612f9e8261207d565b9150612fa98361207d565b9250828201905080821115612fc157612fc0612c5f565b5b9291505056fea264697066735822122014808aeb2140d2a6e657ecea160c609dc92fb4c374ce08b4605f76a7d1183baa64736f6c63430008140033",
  "linkReferences": {},
  "deployedLinkReferences": {}
}